{
	"Noie/3_final3.sol": {
		"SelfDestruct": {
			"abi": [
				{
					"inputs": [],
					"stateMutability": "payable",
					"type": "constructor"
				},
				{
					"anonymous": false,
					"inputs": [
						{
							"indexed": false,
							"internalType": "uint256",
							"name": "amount",
							"type": "uint256"
						}
					],
					"name": "Deposit",
					"type": "event"
				},
				{
					"anonymous": false,
					"inputs": [
						{
							"indexed": false,
							"internalType": "uint256",
							"name": "amount",
							"type": "uint256"
						}
					],
					"name": "Withdraw",
					"type": "event"
				},
				{
					"inputs": [],
					"name": "owner",
					"outputs": [
						{
							"internalType": "address",
							"name": "",
							"type": "address"
						}
					],
					"stateMutability": "view",
					"type": "function"
				},
				{
					"inputs": [
						{
							"internalType": "address payable",
							"name": "_to",
							"type": "address"
						}
					],
					"name": "sendViaCall",
					"outputs": [],
					"stateMutability": "payable",
					"type": "function"
				},
				{
					"inputs": [
						{
							"internalType": "address payable",
							"name": "_to",
							"type": "address"
						}
					],
					"name": "sendViaSend",
					"outputs": [],
					"stateMutability": "payable",
					"type": "function"
				},
				{
					"inputs": [
						{
							"internalType": "address payable",
							"name": "_to",
							"type": "address"
						}
					],
					"name": "sendViaTransfer",
					"outputs": [],
					"stateMutability": "payable",
					"type": "function"
				},
				{
					"inputs": [],
					"name": "withdraw",
					"outputs": [],
					"stateMutability": "nonpayable",
					"type": "function"
				},
				{
					"stateMutability": "payable",
					"type": "receive"
				}
			],
			"devdoc": {
				"kind": "dev",
				"methods": {},
				"version": 1
			},
			"evm": {
				"assembly": "    /* \"Noie/3_final3.sol\":61:923  contract SelfDestruct {... */\n  mstore(0x40, 0x80)\n    /* \"Noie/3_final3.sol\":180:190  msg.sender */\n  caller\n    /* \"Noie/3_final3.sol\":157:190  address public owner = msg.sender */\n  0x00\n  dup1\n  0x0100\n  exp\n  dup2\n  sload\n  dup2\n  0xffffffffffffffffffffffffffffffffffffffff\n  mul\n  not\n  and\n  swap1\n  dup4\n  0xffffffffffffffffffffffffffffffffffffffff\n  and\n  mul\n  or\n  swap1\n  sstore\n  pop\n    /* \"Noie/3_final3.sol\":61:923  contract SelfDestruct {... */\n  dataSize(sub_0)\n  dup1\n  dataOffset(sub_0)\n  0x00\n  codecopy\n  0x00\n  return\nstop\n\nsub_0: assembly {\n        /* \"Noie/3_final3.sol\":61:923  contract SelfDestruct {... */\n      mstore(0x40, 0x80)\n      jumpi(tag_1, lt(calldatasize, 0x04))\n      shr(0xe0, calldataload(0x00))\n      dup1\n      0x3ccfd60b\n      eq\n      tag_3\n      jumpi\n      dup1\n      0x636e082b\n      eq\n      tag_4\n      jumpi\n      dup1\n      0x74be4806\n      eq\n      tag_5\n      jumpi\n      dup1\n      0x830c29ae\n      eq\n      tag_6\n      jumpi\n      dup1\n      0x8da5cb5b\n      eq\n      tag_7\n      jumpi\n      jump(tag_2)\n    tag_1:\n      jumpi(tag_2, calldatasize)\n        /* \"Noie/3_final3.sol\":274:292  Deposit(msg.value) */\n      0x4d6ce1e535dbade1c23defba91e23b8f791ce5edc0cc320257a2b364e4e38426\n        /* \"Noie/3_final3.sol\":282:291  msg.value */\n      callvalue\n        /* \"Noie/3_final3.sol\":274:292  Deposit(msg.value) */\n      mload(0x40)\n      tag_10\n      swap2\n      swap1\n      tag_11\n      jump\t// in\n    tag_10:\n      mload(0x40)\n      dup1\n      swap2\n      sub\n      swap1\n      log1\n        /* \"Noie/3_final3.sol\":61:923  contract SelfDestruct {... */\n      stop\n    tag_2:\n      0x00\n      dup1\n      revert\n        /* \"Noie/3_final3.sol\":740:920  function withdraw() external {... */\n    tag_3:\n      callvalue\n      dup1\n      iszero\n      tag_12\n      jumpi\n      0x00\n      dup1\n      revert\n    tag_12:\n      pop\n      tag_13\n      tag_14\n      jump\t// in\n    tag_13:\n      stop\n        /* \"Noie/3_final3.sol\":308:407  function sendViaTransfer(address payable _to) external payable {... */\n    tag_4:\n      tag_15\n      0x04\n      dup1\n      calldatasize\n      sub\n      dup2\n      add\n      swap1\n      tag_16\n      swap2\n      swap1\n      tag_17\n      jump\t// in\n    tag_16:\n      tag_18\n      jump\t// in\n    tag_15:\n      stop\n        /* \"Noie/3_final3.sol\":415:561  function sendViaSend(address payable _to) external payable  {... */\n    tag_5:\n      tag_19\n      0x04\n      dup1\n      calldatasize\n      sub\n      dup2\n      add\n      swap1\n      tag_20\n      swap2\n      swap1\n      tag_17\n      jump\t// in\n    tag_20:\n      tag_21\n      jump\t// in\n    tag_19:\n      stop\n        /* \"Noie/3_final3.sol\":569:732  function sendViaCall(address payable _to) external payable  {... */\n    tag_6:\n      tag_22\n      0x04\n      dup1\n      calldatasize\n      sub\n      dup2\n      add\n      swap1\n      tag_23\n      swap2\n      swap1\n      tag_17\n      jump\t// in\n    tag_23:\n      tag_24\n      jump\t// in\n    tag_22:\n      stop\n        /* \"Noie/3_final3.sol\":157:190  address public owner = msg.sender */\n    tag_7:\n      callvalue\n      dup1\n      iszero\n      tag_25\n      jumpi\n      0x00\n      dup1\n      revert\n    tag_25:\n      pop\n      tag_26\n      tag_27\n      jump\t// in\n    tag_26:\n      mload(0x40)\n      tag_28\n      swap2\n      swap1\n      tag_29\n      jump\t// in\n    tag_28:\n      mload(0x40)\n      dup1\n      swap2\n      sub\n      swap1\n      return\n        /* \"Noie/3_final3.sol\":740:920  function withdraw() external {... */\n    tag_14:\n        /* \"Noie/3_final3.sol\":802:807  owner */\n      0x00\n      dup1\n      sload\n      swap1\n      0x0100\n      exp\n      swap1\n      div\n      0xffffffffffffffffffffffffffffffffffffffff\n      and\n        /* \"Noie/3_final3.sol\":788:807  msg.sender == owner */\n      0xffffffffffffffffffffffffffffffffffffffff\n      and\n        /* \"Noie/3_final3.sol\":788:798  msg.sender */\n      caller\n        /* \"Noie/3_final3.sol\":788:807  msg.sender == owner */\n      0xffffffffffffffffffffffffffffffffffffffff\n      and\n      eq\n        /* \"Noie/3_final3.sol\":780:821  require(msg.sender == owner, \"Not Owner\") */\n      tag_31\n      jumpi\n      mload(0x40)\n      0x08c379a000000000000000000000000000000000000000000000000000000000\n      dup2\n      mstore\n      0x04\n      add\n      tag_32\n      swap1\n      tag_33\n      jump\t// in\n    tag_32:\n      mload(0x40)\n      dup1\n      swap2\n      sub\n      swap1\n      revert\n    tag_31:\n        /* \"Noie/3_final3.sol\":837:868  Withdraw(address(this).balance) */\n      0x5b6b431d4476a211bb7d41c20d1aab9ae2321deee0d20be3d9fc9b1093fa6e3d\n        /* \"Noie/3_final3.sol\":846:867  address(this).balance */\n      selfbalance\n        /* \"Noie/3_final3.sol\":837:868  Withdraw(address(this).balance) */\n      mload(0x40)\n      tag_34\n      swap2\n      swap1\n      tag_11\n      jump\t// in\n    tag_34:\n      mload(0x40)\n      dup1\n      swap2\n      sub\n      swap1\n      log1\n        /* \"Noie/3_final3.sol\":900:910  msg.sender */\n      caller\n        /* \"Noie/3_final3.sol\":879:912  selfdestruct(payable(msg.sender)) */\n      0xffffffffffffffffffffffffffffffffffffffff\n      and\n      selfdestruct\n        /* \"Noie/3_final3.sol\":308:407  function sendViaTransfer(address payable _to) external payable {... */\n    tag_18:\n        /* \"Noie/3_final3.sol\":382:385  _to */\n      dup1\n        /* \"Noie/3_final3.sol\":382:394  _to.transfer */\n      0xffffffffffffffffffffffffffffffffffffffff\n      and\n        /* \"Noie/3_final3.sol\":382:399  _to.transfer(100) */\n      0x08fc\n        /* \"Noie/3_final3.sol\":395:398  100 */\n      0x64\n        /* \"Noie/3_final3.sol\":382:399  _to.transfer(100) */\n      swap1\n      dup2\n      iszero\n      mul\n      swap1\n      mload(0x40)\n      0x00\n      mload(0x40)\n      dup1\n      dup4\n      sub\n      dup2\n      dup6\n      dup9\n      dup9\n      call\n      swap4\n      pop\n      pop\n      pop\n      pop\n      iszero\n      dup1\n      iszero\n      tag_37\n      jumpi\n      returndatasize\n      0x00\n      dup1\n      returndatacopy\n      revert(0x00, returndatasize)\n    tag_37:\n      pop\n        /* \"Noie/3_final3.sol\":308:407  function sendViaTransfer(address payable _to) external payable {... */\n      pop\n      jump\t// out\n        /* \"Noie/3_final3.sol\":415:561  function sendViaSend(address payable _to) external payable  {... */\n    tag_21:\n        /* \"Noie/3_final3.sol\":486:495  bool sent */\n      0x00\n        /* \"Noie/3_final3.sol\":498:501  _to */\n      dup2\n        /* \"Noie/3_final3.sol\":498:506  _to.send */\n      0xffffffffffffffffffffffffffffffffffffffff\n      and\n        /* \"Noie/3_final3.sol\":498:511  _to.send(100) */\n      0x08fc\n        /* \"Noie/3_final3.sol\":507:510  100 */\n      0x64\n        /* \"Noie/3_final3.sol\":498:511  _to.send(100) */\n      swap1\n      dup2\n      iszero\n      mul\n      swap1\n      mload(0x40)\n      0x00\n      mload(0x40)\n      dup1\n      dup4\n      sub\n      dup2\n      dup6\n      dup9\n      dup9\n      call\n      swap4\n      pop\n      pop\n      pop\n      pop\n        /* \"Noie/3_final3.sol\":486:511  bool sent = _to.send(100) */\n      swap1\n      pop\n        /* \"Noie/3_final3.sol\":530:534  sent */\n      dup1\n        /* \"Noie/3_final3.sol\":522:553  require(sent, \"Sending Failed\") */\n      tag_40\n      jumpi\n      mload(0x40)\n      0x08c379a000000000000000000000000000000000000000000000000000000000\n      dup2\n      mstore\n      0x04\n      add\n      tag_41\n      swap1\n      tag_42\n      jump\t// in\n    tag_41:\n      mload(0x40)\n      dup1\n      swap2\n      sub\n      swap1\n      revert\n    tag_40:\n        /* \"Noie/3_final3.sol\":475:561  {... */\n      pop\n        /* \"Noie/3_final3.sol\":415:561  function sendViaSend(address payable _to) external payable  {... */\n      pop\n      jump\t// out\n        /* \"Noie/3_final3.sol\":569:732  function sendViaCall(address payable _to) external payable  {... */\n    tag_24:\n        /* \"Noie/3_final3.sol\":641:653  bool success */\n      0x00\n        /* \"Noie/3_final3.sol\":659:662  _to */\n      dup2\n        /* \"Noie/3_final3.sol\":659:667  _to.call */\n      0xffffffffffffffffffffffffffffffffffffffff\n      and\n        /* \"Noie/3_final3.sol\":674:677  100 */\n      0x64\n        /* \"Noie/3_final3.sol\":659:682  _to.call{value:100}(\"\") */\n      mload(0x40)\n      tag_44\n      swap1\n      tag_45\n      jump\t// in\n    tag_44:\n      0x00\n      mload(0x40)\n      dup1\n      dup4\n      sub\n      dup2\n      dup6\n      dup8\n      gas\n      call\n      swap3\n      pop\n      pop\n      pop\n      returndatasize\n      dup1\n      0x00\n      dup2\n      eq\n      tag_48\n      jumpi\n      mload(0x40)\n      swap2\n      pop\n      and(add(returndatasize, 0x3f), not(0x1f))\n      dup3\n      add\n      0x40\n      mstore\n      returndatasize\n      dup3\n      mstore\n      returndatasize\n      0x00\n      0x20\n      dup5\n      add\n      returndatacopy\n      jump(tag_47)\n    tag_48:\n      0x60\n      swap2\n      pop\n    tag_47:\n      pop\n        /* \"Noie/3_final3.sol\":640:682  (bool success, ) = _to.call{value:100}(\"\") */\n      pop\n      swap1\n      pop\n        /* \"Noie/3_final3.sol\":701:708  success */\n      dup1\n        /* \"Noie/3_final3.sol\":693:724  require(success, \"call Failed\") */\n      tag_49\n      jumpi\n      mload(0x40)\n      0x08c379a000000000000000000000000000000000000000000000000000000000\n      dup2\n      mstore\n      0x04\n      add\n      tag_50\n      swap1\n      tag_51\n      jump\t// in\n    tag_50:\n      mload(0x40)\n      dup1\n      swap2\n      sub\n      swap1\n      revert\n    tag_49:\n        /* \"Noie/3_final3.sol\":629:732  {... */\n      pop\n        /* \"Noie/3_final3.sol\":569:732  function sendViaCall(address payable _to) external payable  {... */\n      pop\n      jump\t// out\n        /* \"Noie/3_final3.sol\":157:190  address public owner = msg.sender */\n    tag_27:\n      0x00\n      dup1\n      sload\n      swap1\n      0x0100\n      exp\n      swap1\n      div\n      0xffffffffffffffffffffffffffffffffffffffff\n      and\n      dup2\n      jump\t// out\n        /* \"#utility.yul\":7:84   */\n    tag_52:\n        /* \"#utility.yul\":44:51   */\n      0x00\n        /* \"#utility.yul\":73:78   */\n      dup2\n        /* \"#utility.yul\":62:78   */\n      swap1\n      pop\n        /* \"#utility.yul\":7:84   */\n      swap2\n      swap1\n      pop\n      jump\t// out\n        /* \"#utility.yul\":90:208   */\n    tag_53:\n        /* \"#utility.yul\":177:201   */\n      tag_76\n        /* \"#utility.yul\":195:200   */\n      dup2\n        /* \"#utility.yul\":177:201   */\n      tag_52\n      jump\t// in\n    tag_76:\n        /* \"#utility.yul\":172:175   */\n      dup3\n        /* \"#utility.yul\":165:202   */\n      mstore\n        /* \"#utility.yul\":90:208   */\n      pop\n      pop\n      jump\t// out\n        /* \"#utility.yul\":214:436   */\n    tag_11:\n        /* \"#utility.yul\":307:311   */\n      0x00\n        /* \"#utility.yul\":345:347   */\n      0x20\n        /* \"#utility.yul\":334:343   */\n      dup3\n        /* \"#utility.yul\":330:348   */\n      add\n        /* \"#utility.yul\":322:348   */\n      swap1\n      pop\n        /* \"#utility.yul\":358:429   */\n      tag_78\n        /* \"#utility.yul\":426:427   */\n      0x00\n        /* \"#utility.yul\":415:424   */\n      dup4\n        /* \"#utility.yul\":411:428   */\n      add\n        /* \"#utility.yul\":402:408   */\n      dup5\n        /* \"#utility.yul\":358:429   */\n      tag_53\n      jump\t// in\n    tag_78:\n        /* \"#utility.yul\":214:436   */\n      swap3\n      swap2\n      pop\n      pop\n      jump\t// out\n        /* \"#utility.yul\":523:640   */\n    tag_55:\n        /* \"#utility.yul\":632:633   */\n      0x00\n        /* \"#utility.yul\":629:630   */\n      dup1\n        /* \"#utility.yul\":622:634   */\n      revert\n        /* \"#utility.yul\":769:895   */\n    tag_57:\n        /* \"#utility.yul\":806:813   */\n      0x00\n        /* \"#utility.yul\":846:888   */\n      0xffffffffffffffffffffffffffffffffffffffff\n        /* \"#utility.yul\":839:844   */\n      dup3\n        /* \"#utility.yul\":835:889   */\n      and\n        /* \"#utility.yul\":824:889   */\n      swap1\n      pop\n        /* \"#utility.yul\":769:895   */\n      swap2\n      swap1\n      pop\n      jump\t// out\n        /* \"#utility.yul\":901:1005   */\n    tag_58:\n        /* \"#utility.yul\":946:953   */\n      0x00\n        /* \"#utility.yul\":975:999   */\n      tag_84\n        /* \"#utility.yul\":993:998   */\n      dup3\n        /* \"#utility.yul\":975:999   */\n      tag_57\n      jump\t// in\n    tag_84:\n        /* \"#utility.yul\":964:999   */\n      swap1\n      pop\n        /* \"#utility.yul\":901:1005   */\n      swap2\n      swap1\n      pop\n      jump\t// out\n        /* \"#utility.yul\":1011:1149   */\n    tag_59:\n        /* \"#utility.yul\":1092:1124   */\n      tag_86\n        /* \"#utility.yul\":1118:1123   */\n      dup2\n        /* \"#utility.yul\":1092:1124   */\n      tag_58\n      jump\t// in\n    tag_86:\n        /* \"#utility.yul\":1085:1090   */\n      dup2\n        /* \"#utility.yul\":1082:1125   */\n      eq\n        /* \"#utility.yul\":1072:1143   */\n      tag_87\n      jumpi\n        /* \"#utility.yul\":1139:1140   */\n      0x00\n        /* \"#utility.yul\":1136:1137   */\n      dup1\n        /* \"#utility.yul\":1129:1141   */\n      revert\n        /* \"#utility.yul\":1072:1143   */\n    tag_87:\n        /* \"#utility.yul\":1011:1149   */\n      pop\n      jump\t// out\n        /* \"#utility.yul\":1155:1310   */\n    tag_60:\n        /* \"#utility.yul\":1209:1214   */\n      0x00\n        /* \"#utility.yul\":1247:1253   */\n      dup2\n        /* \"#utility.yul\":1234:1254   */\n      calldataload\n        /* \"#utility.yul\":1225:1254   */\n      swap1\n      pop\n        /* \"#utility.yul\":1263:1304   */\n      tag_89\n        /* \"#utility.yul\":1298:1303   */\n      dup2\n        /* \"#utility.yul\":1263:1304   */\n      tag_59\n      jump\t// in\n    tag_89:\n        /* \"#utility.yul\":1155:1310   */\n      swap3\n      swap2\n      pop\n      pop\n      jump\t// out\n        /* \"#utility.yul\":1316:1661   */\n    tag_17:\n        /* \"#utility.yul\":1383:1389   */\n      0x00\n        /* \"#utility.yul\":1432:1434   */\n      0x20\n        /* \"#utility.yul\":1420:1429   */\n      dup3\n        /* \"#utility.yul\":1411:1418   */\n      dup5\n        /* \"#utility.yul\":1407:1430   */\n      sub\n        /* \"#utility.yul\":1403:1435   */\n      slt\n        /* \"#utility.yul\":1400:1519   */\n      iszero\n      tag_91\n      jumpi\n        /* \"#utility.yul\":1438:1517   */\n      tag_92\n      tag_55\n      jump\t// in\n    tag_92:\n        /* \"#utility.yul\":1400:1519   */\n    tag_91:\n        /* \"#utility.yul\":1558:1559   */\n      0x00\n        /* \"#utility.yul\":1583:1644   */\n      tag_93\n        /* \"#utility.yul\":1636:1643   */\n      dup5\n        /* \"#utility.yul\":1627:1633   */\n      dup3\n        /* \"#utility.yul\":1616:1625   */\n      dup6\n        /* \"#utility.yul\":1612:1634   */\n      add\n        /* \"#utility.yul\":1583:1644   */\n      tag_60\n      jump\t// in\n    tag_93:\n        /* \"#utility.yul\":1573:1644   */\n      swap2\n      pop\n        /* \"#utility.yul\":1529:1654   */\n      pop\n        /* \"#utility.yul\":1316:1661   */\n      swap3\n      swap2\n      pop\n      pop\n      jump\t// out\n        /* \"#utility.yul\":1667:1763   */\n    tag_61:\n        /* \"#utility.yul\":1704:1711   */\n      0x00\n        /* \"#utility.yul\":1733:1757   */\n      tag_95\n        /* \"#utility.yul\":1751:1756   */\n      dup3\n        /* \"#utility.yul\":1733:1757   */\n      tag_57\n      jump\t// in\n    tag_95:\n        /* \"#utility.yul\":1722:1757   */\n      swap1\n      pop\n        /* \"#utility.yul\":1667:1763   */\n      swap2\n      swap1\n      pop\n      jump\t// out\n        /* \"#utility.yul\":1769:1887   */\n    tag_62:\n        /* \"#utility.yul\":1856:1880   */\n      tag_97\n        /* \"#utility.yul\":1874:1879   */\n      dup2\n        /* \"#utility.yul\":1856:1880   */\n      tag_61\n      jump\t// in\n    tag_97:\n        /* \"#utility.yul\":1851:1854   */\n      dup3\n        /* \"#utility.yul\":1844:1881   */\n      mstore\n        /* \"#utility.yul\":1769:1887   */\n      pop\n      pop\n      jump\t// out\n        /* \"#utility.yul\":1893:2115   */\n    tag_29:\n        /* \"#utility.yul\":1986:1990   */\n      0x00\n        /* \"#utility.yul\":2024:2026   */\n      0x20\n        /* \"#utility.yul\":2013:2022   */\n      dup3\n        /* \"#utility.yul\":2009:2027   */\n      add\n        /* \"#utility.yul\":2001:2027   */\n      swap1\n      pop\n        /* \"#utility.yul\":2037:2108   */\n      tag_99\n        /* \"#utility.yul\":2105:2106   */\n      0x00\n        /* \"#utility.yul\":2094:2103   */\n      dup4\n        /* \"#utility.yul\":2090:2107   */\n      add\n        /* \"#utility.yul\":2081:2087   */\n      dup5\n        /* \"#utility.yul\":2037:2108   */\n      tag_62\n      jump\t// in\n    tag_99:\n        /* \"#utility.yul\":1893:2115   */\n      swap3\n      swap2\n      pop\n      pop\n      jump\t// out\n        /* \"#utility.yul\":2121:2290   */\n    tag_63:\n        /* \"#utility.yul\":2205:2216   */\n      0x00\n        /* \"#utility.yul\":2239:2245   */\n      dup3\n        /* \"#utility.yul\":2234:2237   */\n      dup3\n        /* \"#utility.yul\":2227:2246   */\n      mstore\n        /* \"#utility.yul\":2279:2283   */\n      0x20\n        /* \"#utility.yul\":2274:2277   */\n      dup3\n        /* \"#utility.yul\":2270:2284   */\n      add\n        /* \"#utility.yul\":2255:2284   */\n      swap1\n      pop\n        /* \"#utility.yul\":2121:2290   */\n      swap3\n      swap2\n      pop\n      pop\n      jump\t// out\n        /* \"#utility.yul\":2296:2455   */\n    tag_64:\n        /* \"#utility.yul\":2436:2447   */\n      0x4e6f74204f776e65720000000000000000000000000000000000000000000000\n        /* \"#utility.yul\":2432:2433   */\n      0x00\n        /* \"#utility.yul\":2424:2430   */\n      dup3\n        /* \"#utility.yul\":2420:2434   */\n      add\n        /* \"#utility.yul\":2413:2448   */\n      mstore\n        /* \"#utility.yul\":2296:2455   */\n      pop\n      jump\t// out\n        /* \"#utility.yul\":2461:2826   */\n    tag_65:\n        /* \"#utility.yul\":2603:2606   */\n      0x00\n        /* \"#utility.yul\":2624:2690   */\n      tag_103\n        /* \"#utility.yul\":2688:2689   */\n      0x09\n        /* \"#utility.yul\":2683:2686   */\n      dup4\n        /* \"#utility.yul\":2624:2690   */\n      tag_63\n      jump\t// in\n    tag_103:\n        /* \"#utility.yul\":2617:2690   */\n      swap2\n      pop\n        /* \"#utility.yul\":2699:2792   */\n      tag_104\n        /* \"#utility.yul\":2788:2791   */\n      dup3\n        /* \"#utility.yul\":2699:2792   */\n      tag_64\n      jump\t// in\n    tag_104:\n        /* \"#utility.yul\":2817:2819   */\n      0x20\n        /* \"#utility.yul\":2812:2815   */\n      dup3\n        /* \"#utility.yul\":2808:2820   */\n      add\n        /* \"#utility.yul\":2801:2820   */\n      swap1\n      pop\n        /* \"#utility.yul\":2461:2826   */\n      swap2\n      swap1\n      pop\n      jump\t// out\n        /* \"#utility.yul\":2832:3251   */\n    tag_33:\n        /* \"#utility.yul\":2998:3002   */\n      0x00\n        /* \"#utility.yul\":3036:3038   */\n      0x20\n        /* \"#utility.yul\":3025:3034   */\n      dup3\n        /* \"#utility.yul\":3021:3039   */\n      add\n        /* \"#utility.yul\":3013:3039   */\n      swap1\n      pop\n        /* \"#utility.yul\":3085:3094   */\n      dup2\n        /* \"#utility.yul\":3079:3083   */\n      dup2\n        /* \"#utility.yul\":3075:3095   */\n      sub\n        /* \"#utility.yul\":3071:3072   */\n      0x00\n        /* \"#utility.yul\":3060:3069   */\n      dup4\n        /* \"#utility.yul\":3056:3073   */\n      add\n        /* \"#utility.yul\":3049:3096   */\n      mstore\n        /* \"#utility.yul\":3113:3244   */\n      tag_106\n        /* \"#utility.yul\":3239:3243   */\n      dup2\n        /* \"#utility.yul\":3113:3244   */\n      tag_65\n      jump\t// in\n    tag_106:\n        /* \"#utility.yul\":3105:3244   */\n      swap1\n      pop\n        /* \"#utility.yul\":2832:3251   */\n      swap2\n      swap1\n      pop\n      jump\t// out\n        /* \"#utility.yul\":3257:3421   */\n    tag_66:\n        /* \"#utility.yul\":3397:3413   */\n      0x53656e64696e67204661696c6564000000000000000000000000000000000000\n        /* \"#utility.yul\":3393:3394   */\n      0x00\n        /* \"#utility.yul\":3385:3391   */\n      dup3\n        /* \"#utility.yul\":3381:3395   */\n      add\n        /* \"#utility.yul\":3374:3414   */\n      mstore\n        /* \"#utility.yul\":3257:3421   */\n      pop\n      jump\t// out\n        /* \"#utility.yul\":3427:3793   */\n    tag_67:\n        /* \"#utility.yul\":3569:3572   */\n      0x00\n        /* \"#utility.yul\":3590:3657   */\n      tag_109\n        /* \"#utility.yul\":3654:3656   */\n      0x0e\n        /* \"#utility.yul\":3649:3652   */\n      dup4\n        /* \"#utility.yul\":3590:3657   */\n      tag_63\n      jump\t// in\n    tag_109:\n        /* \"#utility.yul\":3583:3657   */\n      swap2\n      pop\n        /* \"#utility.yul\":3666:3759   */\n      tag_110\n        /* \"#utility.yul\":3755:3758   */\n      dup3\n        /* \"#utility.yul\":3666:3759   */\n      tag_66\n      jump\t// in\n    tag_110:\n        /* \"#utility.yul\":3784:3786   */\n      0x20\n        /* \"#utility.yul\":3779:3782   */\n      dup3\n        /* \"#utility.yul\":3775:3787   */\n      add\n        /* \"#utility.yul\":3768:3787   */\n      swap1\n      pop\n        /* \"#utility.yul\":3427:3793   */\n      swap2\n      swap1\n      pop\n      jump\t// out\n        /* \"#utility.yul\":3799:4218   */\n    tag_42:\n        /* \"#utility.yul\":3965:3969   */\n      0x00\n        /* \"#utility.yul\":4003:4005   */\n      0x20\n        /* \"#utility.yul\":3992:4001   */\n      dup3\n        /* \"#utility.yul\":3988:4006   */\n      add\n        /* \"#utility.yul\":3980:4006   */\n      swap1\n      pop\n        /* \"#utility.yul\":4052:4061   */\n      dup2\n        /* \"#utility.yul\":4046:4050   */\n      dup2\n        /* \"#utility.yul\":4042:4062   */\n      sub\n        /* \"#utility.yul\":4038:4039   */\n      0x00\n        /* \"#utility.yul\":4027:4036   */\n      dup4\n        /* \"#utility.yul\":4023:4040   */\n      add\n        /* \"#utility.yul\":4016:4063   */\n      mstore\n        /* \"#utility.yul\":4080:4211   */\n      tag_112\n        /* \"#utility.yul\":4206:4210   */\n      dup2\n        /* \"#utility.yul\":4080:4211   */\n      tag_67\n      jump\t// in\n    tag_112:\n        /* \"#utility.yul\":4072:4211   */\n      swap1\n      pop\n        /* \"#utility.yul\":3799:4218   */\n      swap2\n      swap1\n      pop\n      jump\t// out\n        /* \"#utility.yul\":4224:4371   */\n    tag_68:\n        /* \"#utility.yul\":4325:4336   */\n      0x00\n        /* \"#utility.yul\":4362:4365   */\n      dup2\n        /* \"#utility.yul\":4347:4365   */\n      swap1\n      pop\n        /* \"#utility.yul\":4224:4371   */\n      swap3\n      swap2\n      pop\n      pop\n      jump\t// out\n        /* \"#utility.yul\":4377:4491   */\n    tag_69:\n      pop\n      jump\t// out\n        /* \"#utility.yul\":4497:4895   */\n    tag_70:\n        /* \"#utility.yul\":4656:4659   */\n      0x00\n        /* \"#utility.yul\":4677:4760   */\n      tag_116\n        /* \"#utility.yul\":4758:4759   */\n      0x00\n        /* \"#utility.yul\":4753:4756   */\n      dup4\n        /* \"#utility.yul\":4677:4760   */\n      tag_68\n      jump\t// in\n    tag_116:\n        /* \"#utility.yul\":4670:4760   */\n      swap2\n      pop\n        /* \"#utility.yul\":4769:4862   */\n      tag_117\n        /* \"#utility.yul\":4858:4861   */\n      dup3\n        /* \"#utility.yul\":4769:4862   */\n      tag_69\n      jump\t// in\n    tag_117:\n        /* \"#utility.yul\":4887:4888   */\n      0x00\n        /* \"#utility.yul\":4882:4885   */\n      dup3\n        /* \"#utility.yul\":4878:4889   */\n      add\n        /* \"#utility.yul\":4871:4889   */\n      swap1\n      pop\n        /* \"#utility.yul\":4497:4895   */\n      swap2\n      swap1\n      pop\n      jump\t// out\n        /* \"#utility.yul\":4901:5280   */\n    tag_45:\n        /* \"#utility.yul\":5085:5088   */\n      0x00\n        /* \"#utility.yul\":5107:5254   */\n      tag_119\n        /* \"#utility.yul\":5250:5253   */\n      dup3\n        /* \"#utility.yul\":5107:5254   */\n      tag_70\n      jump\t// in\n    tag_119:\n        /* \"#utility.yul\":5100:5254   */\n      swap2\n      pop\n        /* \"#utility.yul\":5271:5274   */\n      dup2\n        /* \"#utility.yul\":5264:5274   */\n      swap1\n      pop\n        /* \"#utility.yul\":4901:5280   */\n      swap2\n      swap1\n      pop\n      jump\t// out\n        /* \"#utility.yul\":5286:5447   */\n    tag_71:\n        /* \"#utility.yul\":5426:5439   */\n      0x63616c6c204661696c6564000000000000000000000000000000000000000000\n        /* \"#utility.yul\":5422:5423   */\n      0x00\n        /* \"#utility.yul\":5414:5420   */\n      dup3\n        /* \"#utility.yul\":5410:5424   */\n      add\n        /* \"#utility.yul\":5403:5440   */\n      mstore\n        /* \"#utility.yul\":5286:5447   */\n      pop\n      jump\t// out\n        /* \"#utility.yul\":5453:5819   */\n    tag_72:\n        /* \"#utility.yul\":5595:5598   */\n      0x00\n        /* \"#utility.yul\":5616:5683   */\n      tag_122\n        /* \"#utility.yul\":5680:5682   */\n      0x0b\n        /* \"#utility.yul\":5675:5678   */\n      dup4\n        /* \"#utility.yul\":5616:5683   */\n      tag_63\n      jump\t// in\n    tag_122:\n        /* \"#utility.yul\":5609:5683   */\n      swap2\n      pop\n        /* \"#utility.yul\":5692:5785   */\n      tag_123\n        /* \"#utility.yul\":5781:5784   */\n      dup3\n        /* \"#utility.yul\":5692:5785   */\n      tag_71\n      jump\t// in\n    tag_123:\n        /* \"#utility.yul\":5810:5812   */\n      0x20\n        /* \"#utility.yul\":5805:5808   */\n      dup3\n        /* \"#utility.yul\":5801:5813   */\n      add\n        /* \"#utility.yul\":5794:5813   */\n      swap1\n      pop\n        /* \"#utility.yul\":5453:5819   */\n      swap2\n      swap1\n      pop\n      jump\t// out\n        /* \"#utility.yul\":5825:6244   */\n    tag_51:\n        /* \"#utility.yul\":5991:5995   */\n      0x00\n        /* \"#utility.yul\":6029:6031   */\n      0x20\n        /* \"#utility.yul\":6018:6027   */\n      dup3\n        /* \"#utility.yul\":6014:6032   */\n      add\n        /* \"#utility.yul\":6006:6032   */\n      swap1\n      pop\n        /* \"#utility.yul\":6078:6087   */\n      dup2\n        /* \"#utility.yul\":6072:6076   */\n      dup2\n        /* \"#utility.yul\":6068:6088   */\n      sub\n        /* \"#utility.yul\":6064:6065   */\n      0x00\n        /* \"#utility.yul\":6053:6062   */\n      dup4\n        /* \"#utility.yul\":6049:6066   */\n      add\n        /* \"#utility.yul\":6042:6089   */\n      mstore\n        /* \"#utility.yul\":6106:6237   */\n      tag_125\n        /* \"#utility.yul\":6232:6236   */\n      dup2\n        /* \"#utility.yul\":6106:6237   */\n      tag_72\n      jump\t// in\n    tag_125:\n        /* \"#utility.yul\":6098:6237   */\n      swap1\n      pop\n        /* \"#utility.yul\":5825:6244   */\n      swap2\n      swap1\n      pop\n      jump\t// out\n\n    auxdata: 0xa264697066735822122023ff407a8f8938b210d246dd0660b85297ce83a867368588077bbb4ab21220ff64736f6c63430008180033\n}\n",
				"bytecode": {
					"linkReferences": {},
					"object": "6080604052335f806101000a81548173ffffffffffffffffffffffffffffffffffffffff021916908373ffffffffffffffffffffffffffffffffffffffff160217905550610646806100505f395ff3fe60806040526004361061004d575f3560e01c80633ccfd60b1461008f578063636e082b146100a557806374be4806146100c1578063830c29ae146100dd5780638da5cb5b146100f95761008b565b3661008b577f4d6ce1e535dbade1c23defba91e23b8f791ce5edc0cc320257a2b364e4e384263460405161008191906103ac565b60405180910390a1005b5f80fd5b34801561009a575f80fd5b506100a3610123565b005b6100bf60048036038101906100ba9190610423565b610200565b005b6100db60048036038101906100d69190610423565b610248565b005b6100f760048036038101906100f29190610423565b6102c4565b005b348015610104575f80fd5b5061010d610371565b60405161011a919061046e565b60405180910390f35b5f8054906101000a900473ffffffffffffffffffffffffffffffffffffffff1673ffffffffffffffffffffffffffffffffffffffff163373ffffffffffffffffffffffffffffffffffffffff16146101b0576040517f08c379a00000000000000000000000000000000000000000000000000000000081526004016101a7906104e1565b60405180910390fd5b7f5b6b431d4476a211bb7d41c20d1aab9ae2321deee0d20be3d9fc9b1093fa6e3d476040516101df91906103ac565b60405180910390a13373ffffffffffffffffffffffffffffffffffffffff16ff5b8073ffffffffffffffffffffffffffffffffffffffff166108fc606490811502906040515f60405180830381858888f19350505050158015610244573d5f803e3d5ffd5b5050565b5f8173ffffffffffffffffffffffffffffffffffffffff166108fc606490811502906040515f60405180830381858888f193505050509050806102c0576040517f08c379a00000000000000000000000000000000000000000000000000000000081526004016102b790610549565b60405180910390fd5b5050565b5f8173ffffffffffffffffffffffffffffffffffffffff1660646040516102ea90610594565b5f6040518083038185875af1925050503d805f8114610324576040519150601f19603f3d011682016040523d82523d5f602084013e610329565b606091505b505090508061036d576040517f08c379a0000000000000000000000000000000000000000000000000000000008152600401610364906105f2565b60405180910390fd5b5050565b5f8054906101000a900473ffffffffffffffffffffffffffffffffffffffff1681565b5f819050919050565b6103a681610394565b82525050565b5f6020820190506103bf5f83018461039d565b92915050565b5f80fd5b5f73ffffffffffffffffffffffffffffffffffffffff82169050919050565b5f6103f2826103c9565b9050919050565b610402816103e8565b811461040c575f80fd5b50565b5f8135905061041d816103f9565b92915050565b5f60208284031215610438576104376103c5565b5b5f6104458482850161040f565b91505092915050565b5f610458826103c9565b9050919050565b6104688161044e565b82525050565b5f6020820190506104815f83018461045f565b92915050565b5f82825260208201905092915050565b7f4e6f74204f776e657200000000000000000000000000000000000000000000005f82015250565b5f6104cb600983610487565b91506104d682610497565b602082019050919050565b5f6020820190508181035f8301526104f8816104bf565b9050919050565b7f53656e64696e67204661696c65640000000000000000000000000000000000005f82015250565b5f610533600e83610487565b915061053e826104ff565b602082019050919050565b5f6020820190508181035f83015261056081610527565b9050919050565b5f81905092915050565b50565b5f61057f5f83610567565b915061058a82610571565b5f82019050919050565b5f61059e82610574565b9150819050919050565b7f63616c6c204661696c65640000000000000000000000000000000000000000005f82015250565b5f6105dc600b83610487565b91506105e7826105a8565b602082019050919050565b5f6020820190508181035f830152610609816105d0565b905091905056fea264697066735822122023ff407a8f8938b210d246dd0660b85297ce83a867368588077bbb4ab21220ff64736f6c63430008180033",
					"opcodes": "PUSH1 0x80 PUSH1 0x40 MSTORE CALLER PUSH0 DUP1 PUSH2 0x100 EXP DUP2 SLOAD DUP2 PUSH20 0xFFFFFFFFFFFFFFFFFFFFFFFFFFFFFFFFFFFFFFFF MUL NOT AND SWAP1 DUP4 PUSH20 0xFFFFFFFFFFFFFFFFFFFFFFFFFFFFFFFFFFFFFFFF AND MUL OR SWAP1 SSTORE POP PUSH2 0x646 DUP1 PUSH2 0x50 PUSH0 CODECOPY PUSH0 RETURN INVALID PUSH1 0x80 PUSH1 0x40 MSTORE PUSH1 0x4 CALLDATASIZE LT PUSH2 0x4D JUMPI PUSH0 CALLDATALOAD PUSH1 0xE0 SHR DUP1 PUSH4 0x3CCFD60B EQ PUSH2 0x8F JUMPI DUP1 PUSH4 0x636E082B EQ PUSH2 0xA5 JUMPI DUP1 PUSH4 0x74BE4806 EQ PUSH2 0xC1 JUMPI DUP1 PUSH4 0x830C29AE EQ PUSH2 0xDD JUMPI DUP1 PUSH4 0x8DA5CB5B EQ PUSH2 0xF9 JUMPI PUSH2 0x8B JUMP JUMPDEST CALLDATASIZE PUSH2 0x8B JUMPI PUSH32 0x4D6CE1E535DBADE1C23DEFBA91E23B8F791CE5EDC0CC320257A2B364E4E38426 CALLVALUE PUSH1 0x40 MLOAD PUSH2 0x81 SWAP2 SWAP1 PUSH2 0x3AC JUMP JUMPDEST PUSH1 0x40 MLOAD DUP1 SWAP2 SUB SWAP1 LOG1 STOP JUMPDEST PUSH0 DUP1 REVERT JUMPDEST CALLVALUE DUP1 ISZERO PUSH2 0x9A JUMPI PUSH0 DUP1 REVERT JUMPDEST POP PUSH2 0xA3 PUSH2 0x123 JUMP JUMPDEST STOP JUMPDEST PUSH2 0xBF PUSH1 0x4 DUP1 CALLDATASIZE SUB DUP2 ADD SWAP1 PUSH2 0xBA SWAP2 SWAP1 PUSH2 0x423 JUMP JUMPDEST PUSH2 0x200 JUMP JUMPDEST STOP JUMPDEST PUSH2 0xDB PUSH1 0x4 DUP1 CALLDATASIZE SUB DUP2 ADD SWAP1 PUSH2 0xD6 SWAP2 SWAP1 PUSH2 0x423 JUMP JUMPDEST PUSH2 0x248 JUMP JUMPDEST STOP JUMPDEST PUSH2 0xF7 PUSH1 0x4 DUP1 CALLDATASIZE SUB DUP2 ADD SWAP1 PUSH2 0xF2 SWAP2 SWAP1 PUSH2 0x423 JUMP JUMPDEST PUSH2 0x2C4 JUMP JUMPDEST STOP JUMPDEST CALLVALUE DUP1 ISZERO PUSH2 0x104 JUMPI PUSH0 DUP1 REVERT JUMPDEST POP PUSH2 0x10D PUSH2 0x371 JUMP JUMPDEST PUSH1 0x40 MLOAD PUSH2 0x11A SWAP2 SWAP1 PUSH2 0x46E JUMP JUMPDEST PUSH1 0x40 MLOAD DUP1 SWAP2 SUB SWAP1 RETURN JUMPDEST PUSH0 DUP1 SLOAD SWAP1 PUSH2 0x100 EXP SWAP1 DIV PUSH20 0xFFFFFFFFFFFFFFFFFFFFFFFFFFFFFFFFFFFFFFFF AND PUSH20 0xFFFFFFFFFFFFFFFFFFFFFFFFFFFFFFFFFFFFFFFF AND CALLER PUSH20 0xFFFFFFFFFFFFFFFFFFFFFFFFFFFFFFFFFFFFFFFF AND EQ PUSH2 0x1B0 JUMPI PUSH1 0x40 MLOAD PUSH32 0x8C379A000000000000000000000000000000000000000000000000000000000 DUP2 MSTORE PUSH1 0x4 ADD PUSH2 0x1A7 SWAP1 PUSH2 0x4E1 JUMP JUMPDEST PUSH1 0x40 MLOAD DUP1 SWAP2 SUB SWAP1 REVERT JUMPDEST PUSH32 0x5B6B431D4476A211BB7D41C20D1AAB9AE2321DEEE0D20BE3D9FC9B1093FA6E3D SELFBALANCE PUSH1 0x40 MLOAD PUSH2 0x1DF SWAP2 SWAP1 PUSH2 0x3AC JUMP JUMPDEST PUSH1 0x40 MLOAD DUP1 SWAP2 SUB SWAP1 LOG1 CALLER PUSH20 0xFFFFFFFFFFFFFFFFFFFFFFFFFFFFFFFFFFFFFFFF AND SELFDESTRUCT JUMPDEST DUP1 PUSH20 0xFFFFFFFFFFFFFFFFFFFFFFFFFFFFFFFFFFFFFFFF AND PUSH2 0x8FC PUSH1 0x64 SWAP1 DUP2 ISZERO MUL SWAP1 PUSH1 0x40 MLOAD PUSH0 PUSH1 0x40 MLOAD DUP1 DUP4 SUB DUP2 DUP6 DUP9 DUP9 CALL SWAP4 POP POP POP POP ISZERO DUP1 ISZERO PUSH2 0x244 JUMPI RETURNDATASIZE PUSH0 DUP1 RETURNDATACOPY RETURNDATASIZE PUSH0 REVERT JUMPDEST POP POP JUMP JUMPDEST PUSH0 DUP2 PUSH20 0xFFFFFFFFFFFFFFFFFFFFFFFFFFFFFFFFFFFFFFFF AND PUSH2 0x8FC PUSH1 0x64 SWAP1 DUP2 ISZERO MUL SWAP1 PUSH1 0x40 MLOAD PUSH0 PUSH1 0x40 MLOAD DUP1 DUP4 SUB DUP2 DUP6 DUP9 DUP9 CALL SWAP4 POP POP POP POP SWAP1 POP DUP1 PUSH2 0x2C0 JUMPI PUSH1 0x40 MLOAD PUSH32 0x8C379A000000000000000000000000000000000000000000000000000000000 DUP2 MSTORE PUSH1 0x4 ADD PUSH2 0x2B7 SWAP1 PUSH2 0x549 JUMP JUMPDEST PUSH1 0x40 MLOAD DUP1 SWAP2 SUB SWAP1 REVERT JUMPDEST POP POP JUMP JUMPDEST PUSH0 DUP2 PUSH20 0xFFFFFFFFFFFFFFFFFFFFFFFFFFFFFFFFFFFFFFFF AND PUSH1 0x64 PUSH1 0x40 MLOAD PUSH2 0x2EA SWAP1 PUSH2 0x594 JUMP JUMPDEST PUSH0 PUSH1 0x40 MLOAD DUP1 DUP4 SUB DUP2 DUP6 DUP8 GAS CALL SWAP3 POP POP POP RETURNDATASIZE DUP1 PUSH0 DUP2 EQ PUSH2 0x324 JUMPI PUSH1 0x40 MLOAD SWAP2 POP PUSH1 0x1F NOT PUSH1 0x3F RETURNDATASIZE ADD AND DUP3 ADD PUSH1 0x40 MSTORE RETURNDATASIZE DUP3 MSTORE RETURNDATASIZE PUSH0 PUSH1 0x20 DUP5 ADD RETURNDATACOPY PUSH2 0x329 JUMP JUMPDEST PUSH1 0x60 SWAP2 POP JUMPDEST POP POP SWAP1 POP DUP1 PUSH2 0x36D JUMPI PUSH1 0x40 MLOAD PUSH32 0x8C379A000000000000000000000000000000000000000000000000000000000 DUP2 MSTORE PUSH1 0x4 ADD PUSH2 0x364 SWAP1 PUSH2 0x5F2 JUMP JUMPDEST PUSH1 0x40 MLOAD DUP1 SWAP2 SUB SWAP1 REVERT JUMPDEST POP POP JUMP JUMPDEST PUSH0 DUP1 SLOAD SWAP1 PUSH2 0x100 EXP SWAP1 DIV PUSH20 0xFFFFFFFFFFFFFFFFFFFFFFFFFFFFFFFFFFFFFFFF AND DUP2 JUMP JUMPDEST PUSH0 DUP2 SWAP1 POP SWAP2 SWAP1 POP JUMP JUMPDEST PUSH2 0x3A6 DUP2 PUSH2 0x394 JUMP JUMPDEST DUP3 MSTORE POP POP JUMP JUMPDEST PUSH0 PUSH1 0x20 DUP3 ADD SWAP1 POP PUSH2 0x3BF PUSH0 DUP4 ADD DUP5 PUSH2 0x39D JUMP JUMPDEST SWAP3 SWAP2 POP POP JUMP JUMPDEST PUSH0 DUP1 REVERT JUMPDEST PUSH0 PUSH20 0xFFFFFFFFFFFFFFFFFFFFFFFFFFFFFFFFFFFFFFFF DUP3 AND SWAP1 POP SWAP2 SWAP1 POP JUMP JUMPDEST PUSH0 PUSH2 0x3F2 DUP3 PUSH2 0x3C9 JUMP JUMPDEST SWAP1 POP SWAP2 SWAP1 POP JUMP JUMPDEST PUSH2 0x402 DUP2 PUSH2 0x3E8 JUMP JUMPDEST DUP2 EQ PUSH2 0x40C JUMPI PUSH0 DUP1 REVERT JUMPDEST POP JUMP JUMPDEST PUSH0 DUP2 CALLDATALOAD SWAP1 POP PUSH2 0x41D DUP2 PUSH2 0x3F9 JUMP JUMPDEST SWAP3 SWAP2 POP POP JUMP JUMPDEST PUSH0 PUSH1 0x20 DUP3 DUP5 SUB SLT ISZERO PUSH2 0x438 JUMPI PUSH2 0x437 PUSH2 0x3C5 JUMP JUMPDEST JUMPDEST PUSH0 PUSH2 0x445 DUP5 DUP3 DUP6 ADD PUSH2 0x40F JUMP JUMPDEST SWAP2 POP POP SWAP3 SWAP2 POP POP JUMP JUMPDEST PUSH0 PUSH2 0x458 DUP3 PUSH2 0x3C9 JUMP JUMPDEST SWAP1 POP SWAP2 SWAP1 POP JUMP JUMPDEST PUSH2 0x468 DUP2 PUSH2 0x44E JUMP JUMPDEST DUP3 MSTORE POP POP JUMP JUMPDEST PUSH0 PUSH1 0x20 DUP3 ADD SWAP1 POP PUSH2 0x481 PUSH0 DUP4 ADD DUP5 PUSH2 0x45F JUMP JUMPDEST SWAP3 SWAP2 POP POP JUMP JUMPDEST PUSH0 DUP3 DUP3 MSTORE PUSH1 0x20 DUP3 ADD SWAP1 POP SWAP3 SWAP2 POP POP JUMP JUMPDEST PUSH32 0x4E6F74204F776E65720000000000000000000000000000000000000000000000 PUSH0 DUP3 ADD MSTORE POP JUMP JUMPDEST PUSH0 PUSH2 0x4CB PUSH1 0x9 DUP4 PUSH2 0x487 JUMP JUMPDEST SWAP2 POP PUSH2 0x4D6 DUP3 PUSH2 0x497 JUMP JUMPDEST PUSH1 0x20 DUP3 ADD SWAP1 POP SWAP2 SWAP1 POP JUMP JUMPDEST PUSH0 PUSH1 0x20 DUP3 ADD SWAP1 POP DUP2 DUP2 SUB PUSH0 DUP4 ADD MSTORE PUSH2 0x4F8 DUP2 PUSH2 0x4BF JUMP JUMPDEST SWAP1 POP SWAP2 SWAP1 POP JUMP JUMPDEST PUSH32 0x53656E64696E67204661696C6564000000000000000000000000000000000000 PUSH0 DUP3 ADD MSTORE POP JUMP JUMPDEST PUSH0 PUSH2 0x533 PUSH1 0xE DUP4 PUSH2 0x487 JUMP JUMPDEST SWAP2 POP PUSH2 0x53E DUP3 PUSH2 0x4FF JUMP JUMPDEST PUSH1 0x20 DUP3 ADD SWAP1 POP SWAP2 SWAP1 POP JUMP JUMPDEST PUSH0 PUSH1 0x20 DUP3 ADD SWAP1 POP DUP2 DUP2 SUB PUSH0 DUP4 ADD MSTORE PUSH2 0x560 DUP2 PUSH2 0x527 JUMP JUMPDEST SWAP1 POP SWAP2 SWAP1 POP JUMP JUMPDEST PUSH0 DUP2 SWAP1 POP SWAP3 SWAP2 POP POP JUMP JUMPDEST POP JUMP JUMPDEST PUSH0 PUSH2 0x57F PUSH0 DUP4 PUSH2 0x567 JUMP JUMPDEST SWAP2 POP PUSH2 0x58A DUP3 PUSH2 0x571 JUMP JUMPDEST PUSH0 DUP3 ADD SWAP1 POP SWAP2 SWAP1 POP JUMP JUMPDEST PUSH0 PUSH2 0x59E DUP3 PUSH2 0x574 JUMP JUMPDEST SWAP2 POP DUP2 SWAP1 POP SWAP2 SWAP1 POP JUMP JUMPDEST PUSH32 0x63616C6C204661696C6564000000000000000000000000000000000000000000 PUSH0 DUP3 ADD MSTORE POP JUMP JUMPDEST PUSH0 PUSH2 0x5DC PUSH1 0xB DUP4 PUSH2 0x487 JUMP JUMPDEST SWAP2 POP PUSH2 0x5E7 DUP3 PUSH2 0x5A8 JUMP JUMPDEST PUSH1 0x20 DUP3 ADD SWAP1 POP SWAP2 SWAP1 POP JUMP JUMPDEST PUSH0 PUSH1 0x20 DUP3 ADD SWAP1 POP DUP2 DUP2 SUB PUSH0 DUP4 ADD MSTORE PUSH2 0x609 DUP2 PUSH2 0x5D0 JUMP JUMPDEST SWAP1 POP SWAP2 SWAP1 POP JUMP INVALID LOG2 PUSH5 0x6970667358 0x22 SLT KECCAK256 0x23 SELFDESTRUCT BLOCKHASH PUSH27 0x8F8938B210D246DD0660B85297CE83A867368588077BBB4AB21220 SELFDESTRUCT PUSH5 0x736F6C6343 STOP ADDMOD XOR STOP CALLER "
				},
				"gasEstimates": {
					"creation": {
						"codeDepositCost": "321200",
						"executionCost": "24601",
						"totalCost": "345801"
					},
					"external": {
						"owner()": "2571",
						"sendViaCall(address)": "infinite",
						"sendViaSend(address)": "infinite",
						"sendViaTransfer(address)": "infinite",
						"withdraw()": "31076"
					}
				},
				"methodIdentifiers": {
					"owner()": "8da5cb5b",
					"sendViaCall(address)": "830c29ae",
					"sendViaSend(address)": "74be4806",
					"sendViaTransfer(address)": "636e082b",
					"withdraw()": "3ccfd60b"
				}
			},
			"storageLayout": {
				"storage": [
					{
						"astId": 13,
						"contract": "Noie/3_final3.sol:SelfDestruct",
						"label": "owner",
						"offset": 0,
						"slot": "0",
						"type": "t_address"
					}
				],
				"types": {
					"t_address": {
						"encoding": "inplace",
						"label": "address",
						"numberOfBytes": "20"
					}
				}
			},
			"userdoc": {
				"kind": "user",
				"methods": {},
				"version": 1
			}
		}
	}
}